{
  "contractName": "GemstoneRegistry",
  "abi": [
    {
      "inputs": [],
      "stateMutability": "nonpayable",
      "type": "constructor"
    },
    {
      "anonymous": false,
      "inputs": [
        {
          "indexed": false,
          "internalType": "string",
          "name": "gemId",
          "type": "string"
        },
        {
          "indexed": false,
          "internalType": "address",
          "name": "owner",
          "type": "address"
        },
        {
          "indexed": false,
          "internalType": "uint256",
          "name": "timestamp",
          "type": "uint256"
        }
      ],
      "name": "CertificationRequested",
      "type": "event"
    },
    {
      "anonymous": false,
      "inputs": [
        {
          "indexed": false,
          "internalType": "string",
          "name": "gemId",
          "type": "string"
        },
        {
          "indexed": false,
          "internalType": "string",
          "name": "certificateNumber",
          "type": "string"
        },
        {
          "indexed": false,
          "internalType": "uint256",
          "name": "timestamp",
          "type": "uint256"
        }
      ],
      "name": "GemstoneCertified",
      "type": "event"
    },
    {
      "anonymous": false,
      "inputs": [
        {
          "indexed": false,
          "internalType": "string",
          "name": "gemId",
          "type": "string"
        },
        {
          "indexed": false,
          "internalType": "address",
          "name": "owner",
          "type": "address"
        },
        {
          "indexed": false,
          "internalType": "uint256",
          "name": "timestamp",
          "type": "uint256"
        }
      ],
      "name": "GemstoneRegistered",
      "type": "event"
    },
    {
      "anonymous": false,
      "inputs": [
        {
          "indexed": false,
          "internalType": "string",
          "name": "gemId",
          "type": "string"
        },
        {
          "indexed": false,
          "internalType": "address",
          "name": "from",
          "type": "address"
        },
        {
          "indexed": false,
          "internalType": "address",
          "name": "to",
          "type": "address"
        },
        {
          "indexed": false,
          "internalType": "uint256",
          "name": "timestamp",
          "type": "uint256"
        }
      ],
      "name": "OwnershipTransferred",
      "type": "event"
    },
    {
      "inputs": [
        {
          "internalType": "string",
          "name": "",
          "type": "string"
        }
      ],
      "name": "certificates",
      "outputs": [
        {
          "internalType": "string",
          "name": "certificateNumber",
          "type": "string"
        },
        {
          "internalType": "string",
          "name": "certifiedBy",
          "type": "string"
        },
        {
          "internalType": "uint256",
          "name": "certificationDate",
          "type": "uint256"
        },
        {
          "internalType": "bool",
          "name": "certified",
          "type": "bool"
        }
      ],
      "stateMutability": "view",
      "type": "function",
      "constant": true
    },
    {
      "inputs": [],
      "name": "contractOwner",
      "outputs": [
        {
          "internalType": "address",
          "name": "",
          "type": "address"
        }
      ],
      "stateMutability": "view",
      "type": "function",
      "constant": true
    },
    {
      "inputs": [
        {
          "internalType": "uint256",
          "name": "",
          "type": "uint256"
        }
      ],
      "name": "gemstoneIds",
      "outputs": [
        {
          "internalType": "string",
          "name": "",
          "type": "string"
        }
      ],
      "stateMutability": "view",
      "type": "function",
      "constant": true
    },
    {
      "inputs": [
        {
          "internalType": "string",
          "name": "",
          "type": "string"
        }
      ],
      "name": "gemstones",
      "outputs": [
        {
          "internalType": "string",
          "name": "gemId",
          "type": "string"
        },
        {
          "internalType": "string",
          "name": "name",
          "type": "string"
        },
        {
          "internalType": "string",
          "name": "gemType",
          "type": "string"
        },
        {
          "internalType": "uint256",
          "name": "carats",
          "type": "uint256"
        },
        {
          "internalType": "string",
          "name": "color",
          "type": "string"
        },
        {
          "internalType": "string",
          "name": "clarity",
          "type": "string"
        },
        {
          "internalType": "string",
          "name": "cut",
          "type": "string"
        },
        {
          "internalType": "string",
          "name": "origin",
          "type": "string"
        },
        {
          "internalType": "address",
          "name": "owner",
          "type": "address"
        },
        {
          "internalType": "bool",
          "name": "exists",
          "type": "bool"
        },
        {
          "internalType": "uint256",
          "name": "timestamp",
          "type": "uint256"
        }
      ],
      "stateMutability": "view",
      "type": "function",
      "constant": true
    },
    {
      "inputs": [
        {
          "internalType": "address",
          "name": "",
          "type": "address"
        }
      ],
      "name": "ngjaOfficers",
      "outputs": [
        {
          "internalType": "bool",
          "name": "",
          "type": "bool"
        }
      ],
      "stateMutability": "view",
      "type": "function",
      "constant": true
    },
    {
      "inputs": [
        {
          "internalType": "address",
          "name": "officer",
          "type": "address"
        }
      ],
      "name": "addNGJAOfficer",
      "outputs": [],
      "stateMutability": "nonpayable",
      "type": "function"
    },
    {
      "inputs": [
        {
          "internalType": "address",
          "name": "officer",
          "type": "address"
        }
      ],
      "name": "removeNGJAOfficer",
      "outputs": [],
      "stateMutability": "nonpayable",
      "type": "function"
    },
    {
      "inputs": [
        {
          "internalType": "string",
          "name": "gemId",
          "type": "string"
        },
        {
          "internalType": "string",
          "name": "name",
          "type": "string"
        },
        {
          "internalType": "string",
          "name": "gemType",
          "type": "string"
        },
        {
          "internalType": "uint256",
          "name": "carats",
          "type": "uint256"
        },
        {
          "internalType": "string",
          "name": "color",
          "type": "string"
        },
        {
          "internalType": "string",
          "name": "clarity",
          "type": "string"
        },
        {
          "internalType": "string",
          "name": "cut",
          "type": "string"
        },
        {
          "internalType": "string",
          "name": "origin",
          "type": "string"
        }
      ],
      "name": "registerGemstone",
      "outputs": [
        {
          "internalType": "bool",
          "name": "",
          "type": "bool"
        }
      ],
      "stateMutability": "nonpayable",
      "type": "function"
    },
    {
      "inputs": [
        {
          "internalType": "string",
          "name": "gemId",
          "type": "string"
        },
        {
          "internalType": "address",
          "name": "newOwner",
          "type": "address"
        }
      ],
      "name": "transferOwnership",
      "outputs": [
        {
          "internalType": "bool",
          "name": "",
          "type": "bool"
        }
      ],
      "stateMutability": "nonpayable",
      "type": "function"
    },
    {
      "inputs": [
        {
          "internalType": "string",
          "name": "gemId",
          "type": "string"
        }
      ],
      "name": "submitForCertification",
      "outputs": [
        {
          "internalType": "bool",
          "name": "",
          "type": "bool"
        }
      ],
      "stateMutability": "nonpayable",
      "type": "function"
    },
    {
      "inputs": [
        {
          "internalType": "string",
          "name": "gemId",
          "type": "string"
        },
        {
          "internalType": "string",
          "name": "certificateNumber",
          "type": "string"
        },
        {
          "internalType": "string",
          "name": "certifiedBy",
          "type": "string"
        }
      ],
      "name": "certifyGemstone",
      "outputs": [
        {
          "internalType": "bool",
          "name": "",
          "type": "bool"
        }
      ],
      "stateMutability": "nonpayable",
      "type": "function"
    },
    {
      "inputs": [
        {
          "internalType": "string",
          "name": "gemId",
          "type": "string"
        }
      ],
      "name": "getGemstone",
      "outputs": [
        {
          "internalType": "string",
          "name": "name",
          "type": "string"
        },
        {
          "internalType": "string",
          "name": "gemType",
          "type": "string"
        },
        {
          "internalType": "uint256",
          "name": "carats",
          "type": "uint256"
        },
        {
          "internalType": "string",
          "name": "color",
          "type": "string"
        },
        {
          "internalType": "string",
          "name": "clarity",
          "type": "string"
        },
        {
          "internalType": "string",
          "name": "cut",
          "type": "string"
        },
        {
          "internalType": "string",
          "name": "origin",
          "type": "string"
        },
        {
          "internalType": "address",
          "name": "owner",
          "type": "address"
        },
        {
          "internalType": "uint256",
          "name": "timestamp",
          "type": "uint256"
        }
      ],
      "stateMutability": "view",
      "type": "function",
      "constant": true
    },
    {
      "inputs": [
        {
          "internalType": "string",
          "name": "gemId",
          "type": "string"
        }
      ],
      "name": "getCertificate",
      "outputs": [
        {
          "internalType": "string",
          "name": "certificateNumber",
          "type": "string"
        },
        {
          "internalType": "string",
          "name": "certifiedBy",
          "type": "string"
        },
        {
          "internalType": "uint256",
          "name": "certificationDate",
          "type": "uint256"
        },
        {
          "internalType": "bool",
          "name": "certified",
          "type": "bool"
        }
      ],
      "stateMutability": "view",
      "type": "function",
      "constant": true
    },
    {
      "inputs": [
        {
          "internalType": "string",
          "name": "gemId",
          "type": "string"
        },
        {
          "internalType": "string",
          "name": "certNumber",
          "type": "string"
        }
      ],
      "name": "verifyCertificateNumber",
      "outputs": [
        {
          "internalType": "bool",
          "name": "",
          "type": "bool"
        }
      ],
      "stateMutability": "view",
      "type": "function",
      "constant": true
    },
    {
      "inputs": [],
      "name": "getTotalGemstones",
      "outputs": [
        {
          "internalType": "uint256",
          "name": "",
          "type": "uint256"
        }
      ],
      "stateMutability": "view",
      "type": "function",
      "constant": true
    },
    {
      "inputs": [
        {
          "internalType": "uint256",
          "name": "index",
          "type": "uint256"
        }
      ],
      "name": "getGemstoneIdByIndex",
      "outputs": [
        {
          "internalType": "string",
          "name": "",
          "type": "string"
        }
      ],
      "stateMutability": "view",
      "type": "function",
      "constant": true
    }
  ],
  "bytecode": "0x608060405234801561001057600080fd5b5033600460006101000a81548173ffffffffffffffffffffffffffffffffffffffff021916908373ffffffffffffffffffffffffffffffffffffffff1602179055506001600260003373ffffffffffffffffffffffffffffffffffffffff1673ffffffffffffffffffffffffffffffffffffffff16815260200190815260200160002060006101000a81548160ff021916908315150217905550612ef6806100b96000396000f3fe608060405234801561001057600080fd5b50600436106101005760003560e01c8063c0e793c211610097578063db74f51511610066578063db74f51514610322578063ed0f2e751461033e578063edbb46de14610371578063ff110a02146103a157610100565b8063c0e793c214610286578063c170c6b5146102b6578063ce606ee0146102d4578063d217bdab146102f257610100565b80638f2b91ea116100d35780638f2b91ea146101bb57806392dce308146101ee578063a2675ab914610226578063a2f734ce1461025657610100565b8063247c3ff5146101055780634b003ed21461013f57806376c57d7e1461016f57806379a04f8a1461018b575b600080fd5b61011f600480360381019061011a9190611f14565b6103d1565b6040516101369b9a99989796959493929190612051565b60405180910390f35b6101596004803603810190610154919061212d565b610826565b60405161016691906121a5565b60405180910390f35b610189600480360381019061018491906121ec565b6108ac565b005b6101a560048036038101906101a091906121ec565b610997565b6040516101b291906121a5565b60405180910390f35b6101d560048036038101906101d09190611f14565b6109b7565b6040516101e59493929190612219565b60405180910390f35b61020860048036038101906102039190611f14565b610b1a565b60405161021d9998979695949392919061226c565b60405180910390f35b610240600480360381019061023b919061234f565b611097565b60405161024d91906121a5565b60405180910390f35b610270600480360381019061026b91906124c9565b611325565b60405161027d91906124f6565b60405180910390f35b6102a0600480360381019061029b9190612518565b61141c565b6040516102ad91906121a5565b60405180910390f35b6102be61169b565b6040516102cb9190612574565b60405180910390f35b6102dc6116a8565b6040516102e9919061258f565b60405180910390f35b61030c60048036038101906103079190611f14565b6116ce565b60405161031991906121a5565b60405180910390f35b61033c600480360381019061033791906121ec565b611835565b005b61035860048036038101906103539190611f14565b611920565b6040516103689493929190612219565b60405180910390f35b61038b600480360381019061038691906125aa565b611ac0565b60405161039891906121a5565b60405180910390f35b6103bb60048036038101906103b691906124c9565b611d0e565b6040516103c891906124f6565b60405180910390f35b60008180516020810182018051848252602083016020850120818352809550505050505060009150905080600001805461040a90612680565b80601f016020809104026020016040519081016040528092919081815260200182805461043690612680565b80156104835780601f1061045857610100808354040283529160200191610483565b820191906000526020600020905b81548152906001019060200180831161046657829003601f168201915b50505050509080600101805461049890612680565b80601f01602080910402602001604051908101604052809291908181526020018280546104c490612680565b80156105115780601f106104e657610100808354040283529160200191610511565b820191906000526020600020905b8154815290600101906020018083116104f457829003601f168201915b50505050509080600201805461052690612680565b80601f016020809104026020016040519081016040528092919081815260200182805461055290612680565b801561059f5780601f106105745761010080835404028352916020019161059f565b820191906000526020600020905b81548152906001019060200180831161058257829003601f168201915b5050505050908060030154908060040180546105ba90612680565b80601f01602080910402602001604051908101604052809291908181526020018280546105e690612680565b80156106335780601f1061060857610100808354040283529160200191610633565b820191906000526020600020905b81548152906001019060200180831161061657829003601f168201915b50505050509080600501805461064890612680565b80601f016020809104026020016040519081016040528092919081815260200182805461067490612680565b80156106c15780601f10610696576101008083540402835291602001916106c1565b820191906000526020600020905b8154815290600101906020018083116106a457829003601f168201915b5050505050908060060180546106d690612680565b80601f016020809104026020016040519081016040528092919081815260200182805461070290612680565b801561074f5780601f106107245761010080835404028352916020019161074f565b820191906000526020600020905b81548152906001019060200180831161073257829003601f168201915b50505050509080600701805461076490612680565b80601f016020809104026020016040519081016040528092919081815260200182805461079090612680565b80156107dd5780601f106107b2576101008083540402835291602001916107dd565b820191906000526020600020905b8154815290600101906020018083116107c057829003601f168201915b5050505050908060080160009054906101000a900473ffffffffffffffffffffffffffffffffffffffff16908060080160149054906101000a900460ff1690806009015490508b565b600060018360405161083891906126ed565b908152602001604051809103902060030160009054906101000a900460ff1661086457600090506108a6565b818051906020012060018460405161087c91906126ed565b908152602001604051809103902060000160405161089a91906127a7565b60405180910390201490505b92915050565b600460009054906101000a900473ffffffffffffffffffffffffffffffffffffffff1673ffffffffffffffffffffffffffffffffffffffff163373ffffffffffffffffffffffffffffffffffffffff161461093c576040517f08c379a000000000000000000000000000000000000000000000000000000000815260040161093390612830565b60405180910390fd5b6000600260008373ffffffffffffffffffffffffffffffffffffffff1673ffffffffffffffffffffffffffffffffffffffff16815260200190815260200160002060006101000a81548160ff02191690831515021790555050565b60026020528060005260406000206000915054906101000a900460ff1681565b6001818051602081018201805184825260208301602085012081835280955050505050506000915090508060000180546109f090612680565b80601f0160208091040260200160405190810160405280929190818152602001828054610a1c90612680565b8015610a695780601f10610a3e57610100808354040283529160200191610a69565b820191906000526020600020905b815481529060010190602001808311610a4c57829003601f168201915b505050505090806001018054610a7e90612680565b80601f0160208091040260200160405190810160405280929190818152602001828054610aaa90612680565b8015610af75780601f10610acc57610100808354040283529160200191610af7565b820191906000526020600020905b815481529060010190602001808311610ada57829003601f168201915b5050505050908060020154908060030160009054906101000a900460ff16905084565b606080600060608060608060008089600081604051610b3991906126ed565b908152602001604051809103902060080160149054906101000a900460ff16610b97576040517f08c379a0000000000000000000000000000000000000000000000000000000008152600401610b8e9061289c565b60405180910390fd5b6000808c604051610ba891906126ed565b908152602001604051809103902060405180610160016040529081600082018054610bd290612680565b80601f0160208091040260200160405190810160405280929190818152602001828054610bfe90612680565b8015610c4b5780601f10610c2057610100808354040283529160200191610c4b565b820191906000526020600020905b815481529060010190602001808311610c2e57829003601f168201915b50505050508152602001600182018054610c6490612680565b80601f0160208091040260200160405190810160405280929190818152602001828054610c9090612680565b8015610cdd5780601f10610cb257610100808354040283529160200191610cdd565b820191906000526020600020905b815481529060010190602001808311610cc057829003601f168201915b50505050508152602001600282018054610cf690612680565b80601f0160208091040260200160405190810160405280929190818152602001828054610d2290612680565b8015610d6f5780601f10610d4457610100808354040283529160200191610d6f565b820191906000526020600020905b815481529060010190602001808311610d5257829003601f168201915b5050505050815260200160038201548152602001600482018054610d9290612680565b80601f0160208091040260200160405190810160405280929190818152602001828054610dbe90612680565b8015610e0b5780601f10610de057610100808354040283529160200191610e0b565b820191906000526020600020905b815481529060010190602001808311610dee57829003601f168201915b50505050508152602001600582018054610e2490612680565b80601f0160208091040260200160405190810160405280929190818152602001828054610e5090612680565b8015610e9d5780601f10610e7257610100808354040283529160200191610e9d565b820191906000526020600020905b815481529060010190602001808311610e8057829003601f168201915b50505050508152602001600682018054610eb690612680565b80601f0160208091040260200160405190810160405280929190818152602001828054610ee290612680565b8015610f2f5780601f10610f0457610100808354040283529160200191610f2f565b820191906000526020600020905b815481529060010190602001808311610f1257829003601f168201915b50505050508152602001600782018054610f4890612680565b80601f0160208091040260200160405190810160405280929190818152602001828054610f7490612680565b8015610fc15780601f10610f9657610100808354040283529160200191610fc1565b820191906000526020600020905b815481529060010190602001808311610fa457829003601f168201915b505050505081526020016008820160009054906101000a900473ffffffffffffffffffffffffffffffffffffffff1673ffffffffffffffffffffffffffffffffffffffff1673ffffffffffffffffffffffffffffffffffffffff1681526020016008820160149054906101000a900460ff16151515158152602001600982015481525050905080602001518160400151826060015183608001518460a001518560c001518660e001518761010001518861014001519a509a509a509a509a509a509a509a509a5050509193959799909294969850565b600080896040516110a891906126ed565b908152602001604051809103902060080160149054906101000a900460ff1615611107576040517f08c379a00000000000000000000000000000000000000000000000000000000081526004016110fe90612908565b60405180910390fd5b6040518061016001604052808a81526020018981526020018881526020018781526020018681526020018581526020018481526020018381526020013373ffffffffffffffffffffffffffffffffffffffff1681526020016001151581526020014281525060008a60405161117c91906126ed565b9081526020016040518091039020600082015181600001908161119f9190612ad4565b5060208201518160010190816111b59190612ad4565b5060408201518160020190816111cb9190612ad4565b506060820151816003015560808201518160040190816111eb9190612ad4565b5060a08201518160050190816112019190612ad4565b5060c08201518160060190816112179190612ad4565b5060e082015181600701908161122d9190612ad4565b506101008201518160080160006101000a81548173ffffffffffffffffffffffffffffffffffffffff021916908373ffffffffffffffffffffffffffffffffffffffff1602179055506101208201518160080160146101000a81548160ff02191690831515021790555061014082015181600901559050506003899080600181540180825580915050600190039060005260206000200160009091909190915090816112d99190612ad4565b507febad9bbb726562cd55b9041b6af887eff731a734423c9ed8a48dd0b70e9f49f989334260405161130d93929190612ba6565b60405180910390a16001905098975050505050505050565b6060600380549050821061136e576040517f08c379a000000000000000000000000000000000000000000000000000000000815260040161136590612c30565b60405180910390fd5b6003828154811061138257611381612c50565b5b90600052602060002001805461139790612680565b80601f01602080910402602001604051908101604052809291908181526020018280546113c390612680565b80156114105780601f106113e557610100808354040283529160200191611410565b820191906000526020600020905b8154815290600101906020018083116113f357829003601f168201915b50505050509050919050565b60008260008160405161142f91906126ed565b908152602001604051809103902060080160149054906101000a900460ff1661148d576040517f08c379a00000000000000000000000000000000000000000000000000000000081526004016114849061289c565b60405180910390fd5b833373ffffffffffffffffffffffffffffffffffffffff166000826040516114b591906126ed565b908152602001604051809103902060080160009054906101000a900473ffffffffffffffffffffffffffffffffffffffff1673ffffffffffffffffffffffffffffffffffffffff161461153d576040517f08c379a000000000000000000000000000000000000000000000000000000000815260040161153490612ccb565b60405180910390fd5b600073ffffffffffffffffffffffffffffffffffffffff168473ffffffffffffffffffffffffffffffffffffffff16036115ac576040517f08c379a00000000000000000000000000000000000000000000000000000000081526004016115a390612d37565b60405180910390fd5b600080866040516115bd91906126ed565b908152602001604051809103902060080160009054906101000a900473ffffffffffffffffffffffffffffffffffffffff1690508460008760405161160291906126ed565b908152602001604051809103902060080160006101000a81548173ffffffffffffffffffffffffffffffffffffffff021916908373ffffffffffffffffffffffffffffffffffffffff1602179055507fe9bf8dbaa7eb0b6910401512e60afcae7734db09df0b7291b4a16e630d796e56868287426040516116869493929190612d57565b60405180910390a16001935050505092915050565b6000600380549050905090565b600460009054906101000a900473ffffffffffffffffffffffffffffffffffffffff1681565b6000816000816040516116e191906126ed565b908152602001604051809103902060080160149054906101000a900460ff1661173f576040517f08c379a00000000000000000000000000000000000000000000000000000000081526004016117369061289c565b60405180910390fd5b823373ffffffffffffffffffffffffffffffffffffffff1660008260405161176791906126ed565b908152602001604051809103902060080160009054906101000a900473ffffffffffffffffffffffffffffffffffffffff1673ffffffffffffffffffffffffffffffffffffffff16146117ef576040517f08c379a00000000000000000000000000000000000000000000000000000000081526004016117e690612ccb565b60405180910390fd5b7fa309d7c59adb643c88725f17d6bf87563e1ea1419c8249d35ec511562ed92e5d84334260405161182293929190612ba6565b60405180910390a1600192505050919050565b600460009054906101000a900473ffffffffffffffffffffffffffffffffffffffff1673ffffffffffffffffffffffffffffffffffffffff163373ffffffffffffffffffffffffffffffffffffffff16146118c5576040517f08c379a00000000000000000000000000000000000000000000000000000000081526004016118bc90612830565b60405180910390fd5b6001600260008373ffffffffffffffffffffffffffffffffffffffff1673ffffffffffffffffffffffffffffffffffffffff16815260200190815260200160002060006101000a81548160ff02191690831515021790555050565b606080600080600060018660405161193891906126ed565b908152602001604051809103902060405180608001604052908160008201805461196190612680565b80601f016020809104026020016040519081016040528092919081815260200182805461198d90612680565b80156119da5780601f106119af576101008083540402835291602001916119da565b820191906000526020600020905b8154815290600101906020018083116119bd57829003601f168201915b505050505081526020016001820180546119f390612680565b80601f0160208091040260200160405190810160405280929190818152602001828054611a1f90612680565b8015611a6c5780601f10611a4157610100808354040283529160200191611a6c565b820191906000526020600020905b815481529060010190602001808311611a4f57829003601f168201915b50505050508152602001600282015481526020016003820160009054906101000a900460ff161515151581525050905080600001518160200151826040015183606001519450945094509450509193509193565b6000600260003373ffffffffffffffffffffffffffffffffffffffff1673ffffffffffffffffffffffffffffffffffffffff16815260200190815260200160002060009054906101000a900460ff16611b4e576040517f08c379a0000000000000000000000000000000000000000000000000000000008152600401611b4590612def565b60405180910390fd5b83600081604051611b5f91906126ed565b908152602001604051809103902060080160149054906101000a900460ff16611bbd576040517f08c379a0000000000000000000000000000000000000000000000000000000008152600401611bb49061289c565b60405180910390fd5b600185604051611bcd91906126ed565b908152602001604051809103902060030160009054906101000a900460ff1615611c2c576040517f08c379a0000000000000000000000000000000000000000000000000000000008152600401611c2390612e5b565b60405180910390fd5b604051806080016040528085815260200184815260200142815260200160011515815250600186604051611c6091906126ed565b90815260200160405180910390206000820151816000019081611c839190612ad4565b506020820151816001019081611c999190612ad4565b506040820151816002015560608201518160030160006101000a81548160ff0219169083151502179055509050507fde827382f41d5a82ef2544286be06644a909652b24d7bc239a29263eb11c73fd858542604051611cfa93929190612e7b565b60405180910390a160019150509392505050565b60038181548110611d1e57600080fd5b906000526020600020016000915090508054611d3990612680565b80601f0160208091040260200160405190810160405280929190818152602001828054611d6590612680565b8015611db25780601f10611d8757610100808354040283529160200191611db2565b820191906000526020600020905b815481529060010190602001808311611d9557829003601f168201915b505050505081565b6000604051905090565b600080fd5b600080fd5b600080fd5b600080fd5b6000601f19601f8301169050919050565b7f4e487b7100000000000000000000000000000000000000000000000000000000600052604160045260246000fd5b611e2182611dd8565b810181811067ffffffffffffffff82111715611e4057611e3f611de9565b5b80604052505050565b6000611e53611dba565b9050611e5f8282611e18565b919050565b600067ffffffffffffffff821115611e7f57611e7e611de9565b5b611e8882611dd8565b9050602081019050919050565b82818337600083830152505050565b6000611eb7611eb284611e64565b611e49565b905082815260208101848484011115611ed357611ed2611dd3565b5b611ede848285611e95565b509392505050565b600082601f830112611efb57611efa611dce565b5b8135611f0b848260208601611ea4565b91505092915050565b600060208284031215611f2a57611f29611dc4565b5b600082013567ffffffffffffffff811115611f4857611f47611dc9565b5b611f5484828501611ee6565b91505092915050565b600081519050919050565b600082825260208201905092915050565b60005b83811015611f97578082015181840152602081019050611f7c565b60008484015250505050565b6000611fae82611f5d565b611fb88185611f68565b9350611fc8818560208601611f79565b611fd181611dd8565b840191505092915050565b6000819050919050565b611fef81611fdc565b82525050565b600073ffffffffffffffffffffffffffffffffffffffff82169050919050565b600061202082611ff5565b9050919050565b61203081612015565b82525050565b60008115159050919050565b61204b81612036565b82525050565b600061016082019050818103600083015261206c818e611fa3565b90508181036020830152612080818d611fa3565b90508181036040830152612094818c611fa3565b90506120a3606083018b611fe6565b81810360808301526120b5818a611fa3565b905081810360a08301526120c98189611fa3565b905081810360c08301526120dd8188611fa3565b905081810360e08301526120f18187611fa3565b9050612101610100830186612027565b61210f610120830185612042565b61211d610140830184611fe6565b9c9b505050505050505050505050565b6000806040838503121561214457612143611dc4565b5b600083013567ffffffffffffffff81111561216257612161611dc9565b5b61216e85828601611ee6565b925050602083013567ffffffffffffffff81111561218f5761218e611dc9565b5b61219b85828601611ee6565b9150509250929050565b60006020820190506121ba6000830184612042565b92915050565b6121c981612015565b81146121d457600080fd5b50565b6000813590506121e6816121c0565b92915050565b60006020828403121561220257612201611dc4565b5b6000612210848285016121d7565b91505092915050565b600060808201905081810360008301526122338187611fa3565b905081810360208301526122478186611fa3565b90506122566040830185611fe6565b6122636060830184612042565b95945050505050565b6000610120820190508181036000830152612287818c611fa3565b9050818103602083015261229b818b611fa3565b90506122aa604083018a611fe6565b81810360608301526122bc8189611fa3565b905081810360808301526122d08188611fa3565b905081810360a08301526122e48187611fa3565b905081810360c08301526122f88186611fa3565b905061230760e0830185612027565b612315610100830184611fe6565b9a9950505050505050505050565b61232c81611fdc565b811461233757600080fd5b50565b60008135905061234981612323565b92915050565b600080600080600080600080610100898b0312156123705761236f611dc4565b5b600089013567ffffffffffffffff81111561238e5761238d611dc9565b5b61239a8b828c01611ee6565b985050602089013567ffffffffffffffff8111156123bb576123ba611dc9565b5b6123c78b828c01611ee6565b975050604089013567ffffffffffffffff8111156123e8576123e7611dc9565b5b6123f48b828c01611ee6565b96505060606124058b828c0161233a565b955050608089013567ffffffffffffffff81111561242657612425611dc9565b5b6124328b828c01611ee6565b94505060a089013567ffffffffffffffff81111561245357612452611dc9565b5b61245f8b828c01611ee6565b93505060c089013567ffffffffffffffff8111156124805761247f611dc9565b5b61248c8b828c01611ee6565b92505060e089013567ffffffffffffffff8111156124ad576124ac611dc9565b5b6124b98b828c01611ee6565b9150509295985092959890939650565b6000602082840312156124df576124de611dc4565b5b60006124ed8482850161233a565b91505092915050565b600060208201905081810360008301526125108184611fa3565b905092915050565b6000806040838503121561252f5761252e611dc4565b5b600083013567ffffffffffffffff81111561254d5761254c611dc9565b5b61255985828601611ee6565b925050602061256a858286016121d7565b9150509250929050565b60006020820190506125896000830184611fe6565b92915050565b60006020820190506125a46000830184612027565b92915050565b6000806000606084860312156125c3576125c2611dc4565b5b600084013567ffffffffffffffff8111156125e1576125e0611dc9565b5b6125ed86828701611ee6565b935050602084013567ffffffffffffffff81111561260e5761260d611dc9565b5b61261a86828701611ee6565b925050604084013567ffffffffffffffff81111561263b5761263a611dc9565b5b61264786828701611ee6565b9150509250925092565b7f4e487b7100000000000000000000000000000000000000000000000000000000600052602260045260246000fd5b6000600282049050600182168061269857607f821691505b6020821081036126ab576126aa612651565b5b50919050565b600081905092915050565b60006126c782611f5d565b6126d181856126b1565b93506126e1818560208601611f79565b80840191505092915050565b60006126f982846126bc565b915081905092915050565b600081905092915050565b60008190508160005260206000209050919050565b6000815461273181612680565b61273b8186612704565b94506001821660008114612756576001811461276b5761279e565b60ff198316865281151582028601935061279e565b6127748561270f565b60005b8381101561279657815481890152600182019150602081019050612777565b838801955050505b50505092915050565b60006127b38284612724565b915081905092915050565b7f4f6e6c7920636f6e7472616374206f776e65722063616e2063616c6c2074686960008201527f7300000000000000000000000000000000000000000000000000000000000000602082015250565b600061281a602183611f68565b9150612825826127be565b604082019050919050565b600060208201905081810360008301526128498161280d565b9050919050565b7f47656d73746f6e6520646f6573206e6f74206578697374000000000000000000600082015250565b6000612886601783611f68565b915061289182612850565b602082019050919050565b600060208201905081810360008301526128b581612879565b9050919050565b7f47656d73746f6e6520616c726561647920726567697374657265640000000000600082015250565b60006128f2601b83611f68565b91506128fd826128bc565b602082019050919050565b60006020820190508181036000830152612921816128e5565b9050919050565b60008190508160005260206000209050919050565b60006020601f8301049050919050565b600082821b905092915050565b60006008830261298a7fffffffffffffffffffffffffffffffffffffffffffffffffffffffffffffffff8261294d565b612994868361294d565b95508019841693508086168417925050509392505050565b6000819050919050565b60006129d16129cc6129c784611fdc565b6129ac565b611fdc565b9050919050565b6000819050919050565b6129eb836129b6565b6129ff6129f7826129d8565b84845461295a565b825550505050565b600090565b612a14612a07565b612a1f8184846129e2565b505050565b5b81811015612a4357612a38600082612a0c565b600181019050612a25565b5050565b601f821115612a8857612a5981612928565b612a628461293d565b81016020851015612a71578190505b612a85612a7d8561293d565b830182612a24565b50505b505050565b600082821c905092915050565b6000612aab60001984600802612a8d565b1980831691505092915050565b6000612ac48383612a9a565b9150826002028217905092915050565b612add82611f5d565b67ffffffffffffffff811115612af657612af5611de9565b5b612b008254612680565b612b0b828285612a47565b600060209050601f831160018114612b3e5760008415612b2c578287015190505b612b368582612ab8565b865550612b9e565b601f198416612b4c86612928565b60005b82811015612b7457848901518255600182019150602085019450602081019050612b4f565b86831015612b915784890151612b8d601f891682612a9a565b8355505b6001600288020188555050505b505050505050565b60006060820190508181036000830152612bc08186611fa3565b9050612bcf6020830185612027565b612bdc6040830184611fe6565b949350505050565b7f496e646578206f7574206f6620626f756e647300000000000000000000000000600082015250565b6000612c1a601383611f68565b9150612c2582612be4565b602082019050919050565b60006020820190508181036000830152612c4981612c0d565b9050919050565b7f4e487b7100000000000000000000000000000000000000000000000000000000600052603260045260246000fd5b7f4e6f74207468652067656d73746f6e65206f776e657200000000000000000000600082015250565b6000612cb5601683611f68565b9150612cc082612c7f565b602082019050919050565b60006020820190508181036000830152612ce481612ca8565b9050919050565b7f496e76616c6964206e6577206f776e6572206164647265737300000000000000600082015250565b6000612d21601983611f68565b9150612d2c82612ceb565b602082019050919050565b60006020820190508181036000830152612d5081612d14565b9050919050565b60006080820190508181036000830152612d718187611fa3565b9050612d806020830186612027565b612d8d6040830185612027565b612d9a6060830184611fe6565b95945050505050565b7f4f6e6c79204e474a41206f666669636572732063616e20636572746966790000600082015250565b6000612dd9601e83611f68565b9150612de482612da3565b602082019050919050565b60006020820190508181036000830152612e0881612dcc565b9050919050565b7f416c726561647920636572746966696564000000000000000000000000000000600082015250565b6000612e45601183611f68565b9150612e5082612e0f565b602082019050919050565b60006020820190508181036000830152612e7481612e38565b9050919050565b60006060820190508181036000830152612e958186611fa3565b90508181036020830152612ea98185611fa3565b9050612eb86040830184611fe6565b94935050505056fea26469706673582212202e3dd9ea0b41d20e5997920b4bf2653977cfced9d9f84a96bb9c104a2da91b3b64736f6c63430008130033",
  "immutableReferences": {},
  "source": "// SPDX-License-Identifier: MIT\npragma solidity ^0.8.19;\n\ncontract GemstoneRegistry {\n    \n    struct Gemstone {\n        string gemId;\n        string name;\n        string gemType;\n        uint256 carats;\n        string color;\n        string clarity;\n        string cut;\n        string origin;\n        address owner;\n        bool exists;\n        uint256 timestamp;\n    }\n    \n    struct Certificate {\n        string certificateNumber;\n        string certifiedBy;\n        uint256 certificationDate;\n        bool certified;\n    }\n    \n    // Mappings\n    mapping(string => Gemstone) public gemstones;\n    mapping(string => Certificate) public certificates;\n    mapping(address => bool) public ngjaOfficers;           \n    \n    // Arrays for enumeration\n    string[] public gemstoneIds;\n    \n    // Events\n    event GemstoneRegistered(string gemId, address owner, uint256 timestamp);\n    event OwnershipTransferred(string gemId, address from, address to, uint256 timestamp);\n    event CertificationRequested(string gemId, address owner, uint256 timestamp);\n    event GemstoneCertified(string gemId, string certificateNumber, uint256 timestamp);\n    \n    // Owner\n    address public contractOwner;\n    \n    constructor() {\n        contractOwner = msg.sender;\n        ngjaOfficers[msg.sender] = true; // Contract deployer is first NGJA officer\n    }\n    \n    // Modifiers\n    modifier onlyOwner() {\n        require(msg.sender == contractOwner, \"Only contract owner can call this\");\n        _;\n    }\n    \n    modifier onlyNGJAOfficer() {\n        require(ngjaOfficers[msg.sender], \"Only NGJA officers can certify\");\n        _;\n    }\n    \n    modifier gemstoneExists(string memory gemId) {\n        require(gemstones[gemId].exists, \"Gemstone does not exist\");\n        _;\n    }\n    \n    modifier onlyGemstoneOwner(string memory gemId) {\n        require(gemstones[gemId].owner == msg.sender, \"Not the gemstone owner\");\n        _;\n    }\n    \n    // Functions\n    \n    // Add NGJA Officer\n    function addNGJAOfficer(address officer) public onlyOwner {\n        ngjaOfficers[officer] = true;\n    }\n    \n    // Remove NGJA Officer\n    function removeNGJAOfficer(address officer) public onlyOwner {\n        ngjaOfficers[officer] = false;\n    }\n    \n    // Register Gemstone\n    function registerGemstone(\n        string memory gemId,\n        string memory name,\n        string memory gemType,\n        uint256 carats,\n        string memory color,\n        string memory clarity,\n        string memory cut,\n        string memory origin\n    ) public returns (bool) {\n        require(!gemstones[gemId].exists, \"Gemstone already registered\");\n        \n        gemstones[gemId] = Gemstone({\n            gemId: gemId,\n            name: name,\n            gemType: gemType,\n            carats: carats,\n            color: color,\n            clarity: clarity,\n            cut: cut,\n            origin: origin,\n            owner: msg.sender,\n            exists: true,\n            timestamp: block.timestamp\n        });\n        \n        gemstoneIds.push(gemId);\n        \n        emit GemstoneRegistered(gemId, msg.sender, block.timestamp);\n        return true;\n    }\n    \n    // Transfer Ownership\n    function transferOwnership(string memory gemId, address newOwner) \n        public \n        gemstoneExists(gemId) \n        onlyGemstoneOwner(gemId) \n        returns (bool) \n    {\n        require(newOwner != address(0), \"Invalid new owner address\");\n        \n        address previousOwner = gemstones[gemId].owner;\n        gemstones[gemId].owner = newOwner;\n        \n        emit OwnershipTransferred(gemId, previousOwner, newOwner, block.timestamp);\n        return true;\n    }\n    \n    // Submit for Certification (anyone can call but must own the gemstone)\n    function submitForCertification(string memory gemId) \n        public \n        gemstoneExists(gemId) \n        onlyGemstoneOwner(gemId) \n        returns (bool) \n    {\n        emit CertificationRequested(gemId, msg.sender, block.timestamp);\n        return true;\n    }\n    \n    // Certify Gemstone (only NGJA officer)\n    function certifyGemstone(\n        string memory gemId,\n        string memory certificateNumber,\n        string memory certifiedBy\n    ) public onlyNGJAOfficer gemstoneExists(gemId) returns (bool) {\n        require(!certificates[gemId].certified, \"Already certified\");\n        \n        certificates[gemId] = Certificate({\n            certificateNumber: certificateNumber,\n            certifiedBy: certifiedBy,\n            certificationDate: block.timestamp,\n            certified: true\n        });\n        \n        emit GemstoneCertified(gemId, certificateNumber, block.timestamp);\n        return true;\n    }\n    \n    // Get Gemstone\n    function getGemstone(string memory gemId) \n        public \n        view \n        gemstoneExists(gemId) \n        returns (\n            string memory name,\n            string memory gemType,\n            uint256 carats,\n            string memory color,\n            string memory clarity,\n            string memory cut,\n            string memory origin,\n            address owner,\n            uint256 timestamp\n        ) \n    {\n        Gemstone memory gem = gemstones[gemId];\n        return (\n            gem.name,\n            gem.gemType,\n            gem.carats,\n            gem.color,\n            gem.clarity,\n            gem.cut,\n            gem.origin,\n            gem.owner,\n            gem.timestamp\n        );\n    }\n    \n    // Get Certificate\n    function getCertificate(string memory gemId) \n        public \n        view \n        returns (\n            string memory certificateNumber,\n            string memory certifiedBy,\n            uint256 certificationDate,\n            bool certified\n        ) \n    {\n        Certificate memory cert = certificates[gemId];\n        return (\n            cert.certificateNumber,\n            cert.certifiedBy,\n            cert.certificationDate,\n            cert.certified\n        );\n    }\n    \n    // Verify Certificate by Number\n    function verifyCertificateNumber(string memory gemId, string memory certNumber) \n        public \n        view \n        returns (bool) \n    {\n        if (!certificates[gemId].certified) return false;\n        return keccak256(bytes(certificates[gemId].certificateNumber)) == keccak256(bytes(certNumber));\n    }\n    \n    // Get total gemstones\n    function getTotalGemstones() public view returns (uint256) {\n        return gemstoneIds.length;\n    }\n    \n    // Get gemstone ID by index\n    function getGemstoneIdByIndex(uint256 index) public view returns (string memory) {\n        require(index < gemstoneIds.length, \"Index out of bounds\");\n        return gemstoneIds[index];\n    }\n}",
  "sourcePath": "C:\\Users\\ASUS\\Downloads\\Archive-1\\gem-stone-backend\\contracts\\GemstoneRegistry.sol",
  "compiler": {
    "name": "solc",
    "version": "0.8.19+commit.7dd6d404.Emscripten.clang"
  },
  "schemaVersion": "3.4.16",
  "updatedAt": "2026-05-10T10:47:09.734Z",
  "networkType": "ethereum",
  "devdoc": {
    "kind": "dev",
    "methods": {},
    "version": 1
  },
  "userdoc": {
    "kind": "user",
    "methods": {},
    "version": 1
  }
}